{
  "contractName": "RateItUpToken",
  "abi": [
    {
      "inputs": [
        {
          "internalType": "uint256",
          "name": "initialSupply",
          "type": "uint256"
        }
      ],
      "stateMutability": "nonpayable",
      "type": "constructor"
    },
    {
      "anonymous": false,
      "inputs": [
        {
          "indexed": true,
          "internalType": "address",
          "name": "owner",
          "type": "address"
        },
        {
          "indexed": true,
          "internalType": "address",
          "name": "spender",
          "type": "address"
        },
        {
          "indexed": false,
          "internalType": "uint256",
          "name": "value",
          "type": "uint256"
        }
      ],
      "name": "Approval",
      "type": "event"
    },
    {
      "anonymous": false,
      "inputs": [
        {
          "indexed": true,
          "internalType": "address",
          "name": "from",
          "type": "address"
        },
        {
          "indexed": true,
          "internalType": "address",
          "name": "to",
          "type": "address"
        },
        {
          "indexed": false,
          "internalType": "uint256",
          "name": "value",
          "type": "uint256"
        }
      ],
      "name": "Transfer",
      "type": "event"
    },
    {
      "inputs": [],
      "name": "_owner",
      "outputs": [
        {
          "internalType": "address",
          "name": "",
          "type": "address"
        }
      ],
      "stateMutability": "view",
      "type": "function",
      "constant": true
    },
    {
      "inputs": [
        {
          "internalType": "address",
          "name": "owner",
          "type": "address"
        },
        {
          "internalType": "address",
          "name": "spender",
          "type": "address"
        }
      ],
      "name": "allowance",
      "outputs": [
        {
          "internalType": "uint256",
          "name": "",
          "type": "uint256"
        }
      ],
      "stateMutability": "view",
      "type": "function",
      "constant": true
    },
    {
      "inputs": [
        {
          "internalType": "address",
          "name": "spender",
          "type": "address"
        },
        {
          "internalType": "uint256",
          "name": "amount",
          "type": "uint256"
        }
      ],
      "name": "approve",
      "outputs": [
        {
          "internalType": "bool",
          "name": "",
          "type": "bool"
        }
      ],
      "stateMutability": "nonpayable",
      "type": "function"
    },
    {
      "inputs": [
        {
          "internalType": "address",
          "name": "account",
          "type": "address"
        }
      ],
      "name": "balanceOf",
      "outputs": [
        {
          "internalType": "uint256",
          "name": "",
          "type": "uint256"
        }
      ],
      "stateMutability": "view",
      "type": "function",
      "constant": true
    },
    {
      "inputs": [],
      "name": "decimals",
      "outputs": [
        {
          "internalType": "uint8",
          "name": "",
          "type": "uint8"
        }
      ],
      "stateMutability": "view",
      "type": "function",
      "constant": true
    },
    {
      "inputs": [
        {
          "internalType": "address",
          "name": "spender",
          "type": "address"
        },
        {
          "internalType": "uint256",
          "name": "subtractedValue",
          "type": "uint256"
        }
      ],
      "name": "decreaseAllowance",
      "outputs": [
        {
          "internalType": "bool",
          "name": "",
          "type": "bool"
        }
      ],
      "stateMutability": "nonpayable",
      "type": "function"
    },
    {
      "inputs": [
        {
          "internalType": "address",
          "name": "spender",
          "type": "address"
        },
        {
          "internalType": "uint256",
          "name": "addedValue",
          "type": "uint256"
        }
      ],
      "name": "increaseAllowance",
      "outputs": [
        {
          "internalType": "bool",
          "name": "",
          "type": "bool"
        }
      ],
      "stateMutability": "nonpayable",
      "type": "function"
    },
    {
      "inputs": [],
      "name": "name",
      "outputs": [
        {
          "internalType": "string",
          "name": "",
          "type": "string"
        }
      ],
      "stateMutability": "view",
      "type": "function",
      "constant": true
    },
    {
      "inputs": [],
      "name": "symbol",
      "outputs": [
        {
          "internalType": "string",
          "name": "",
          "type": "string"
        }
      ],
      "stateMutability": "view",
      "type": "function",
      "constant": true
    },
    {
      "inputs": [],
      "name": "totalSupply",
      "outputs": [
        {
          "internalType": "uint256",
          "name": "",
          "type": "uint256"
        }
      ],
      "stateMutability": "view",
      "type": "function",
      "constant": true
    },
    {
      "inputs": [
        {
          "internalType": "address",
          "name": "to",
          "type": "address"
        },
        {
          "internalType": "uint256",
          "name": "amount",
          "type": "uint256"
        }
      ],
      "name": "transfer",
      "outputs": [
        {
          "internalType": "bool",
          "name": "",
          "type": "bool"
        }
      ],
      "stateMutability": "nonpayable",
      "type": "function"
    },
    {
      "inputs": [
        {
          "internalType": "address",
          "name": "from",
          "type": "address"
        },
        {
          "internalType": "address",
          "name": "to",
          "type": "address"
        },
        {
          "internalType": "uint256",
          "name": "amount",
          "type": "uint256"
        }
      ],
      "name": "transferFrom",
      "outputs": [
        {
          "internalType": "bool",
          "name": "",
          "type": "bool"
        }
      ],
      "stateMutability": "nonpayable",
      "type": "function"
    },
    {
      "inputs": [],
      "name": "withdrawAll",
      "outputs": [],
      "stateMutability": "nonpayable",
      "type": "function"
    },
    {
      "inputs": [
        {
          "internalType": "uint256",
          "name": "_amount",
          "type": "uint256"
        }
      ],
      "name": "withdraw",
      "outputs": [],
      "stateMutability": "nonpayable",
      "type": "function"
    },
    {
      "inputs": [
        {
          "internalType": "address",
          "name": "_receiver",
          "type": "address"
        },
        {
          "internalType": "uint256",
          "name": "_amount",
          "type": "uint256"
        }
      ],
      "name": "sendToken",
      "outputs": [],
      "stateMutability": "nonpayable",
      "type": "function"
    },
    {
      "inputs": [],
      "name": "checkContractBalance",
      "outputs": [
        {
          "internalType": "uint256",
          "name": "",
          "type": "uint256"
        }
      ],
      "stateMutability": "view",
      "type": "function",
      "constant": true
    }
  ],
  "bytecode": "0x60806040523480156200001157600080fd5b5060405162001eff38038062001eff8339818101604052810190620000379190620002da565b6040518060400160405280600d81526020017f5261746549745570546f6b656e000000000000000000000000000000000000008152506040518060400160405280600381526020017f52495500000000000000000000000000000000000000000000000000000000008152508160039081620000b491906200057c565b508060049081620000c691906200057c565b505050620000db30826200012360201b60201c565b33600560006101000a81548173ffffffffffffffffffffffffffffffffffffffff021916908373ffffffffffffffffffffffffffffffffffffffff160217905550506200077e565b600073ffffffffffffffffffffffffffffffffffffffff168273ffffffffffffffffffffffffffffffffffffffff160362000195576040517f08c379a00000000000000000000000000000000000000000000000000000000081526004016200018c90620006c4565b60405180910390fd5b620001a9600083836200029060201b60201c565b8060026000828254620001bd919062000715565b92505081905550806000808473ffffffffffffffffffffffffffffffffffffffff1673ffffffffffffffffffffffffffffffffffffffff168152602001908152602001600020600082825401925050819055508173ffffffffffffffffffffffffffffffffffffffff16600073ffffffffffffffffffffffffffffffffffffffff167fddf252ad1be2c89b69c2b068fc378daa952ba7f163c4a11628f55a4df523b3ef8360405162000270919062000761565b60405180910390a36200028c600083836200029560201b60201c565b5050565b505050565b505050565b600080fd5b6000819050919050565b620002b4816200029f565b8114620002c057600080fd5b50565b600081519050620002d481620002a9565b92915050565b600060208284031215620002f357620002f26200029a565b5b60006200030384828501620002c3565b91505092915050565b600081519050919050565b7f4e487b7100000000000000000000000000000000000000000000000000000000600052604160045260246000fd5b7f4e487b7100000000000000000000000000000000000000000000000000000000600052602260045260246000fd5b600060028204905060018216806200038e57607f821691505b602082108103620003a457620003a362000346565b5b50919050565b60008190508160005260206000209050919050565b60006020601f8301049050919050565b600082821b905092915050565b6000600883026200040e7fffffffffffffffffffffffffffffffffffffffffffffffffffffffffffffffff82620003cf565b6200041a8683620003cf565b95508019841693508086168417925050509392505050565b6000819050919050565b60006200045d6200045762000451846200029f565b62000432565b6200029f565b9050919050565b6000819050919050565b62000479836200043c565b62000491620004888262000464565b848454620003dc565b825550505050565b600090565b620004a862000499565b620004b58184846200046e565b505050565b5b81811015620004dd57620004d16000826200049e565b600181019050620004bb565b5050565b601f8211156200052c57620004f681620003aa565b6200050184620003bf565b8101602085101562000511578190505b620005296200052085620003bf565b830182620004ba565b50505b505050565b600082821c905092915050565b6000620005516000198460080262000531565b1980831691505092915050565b60006200056c83836200053e565b9150826002028217905092915050565b62000587826200030c565b67ffffffffffffffff811115620005a357620005a262000317565b5b620005af825462000375565b620005bc828285620004e1565b600060209050601f831160018114620005f45760008415620005df578287015190505b620005eb85826200055e565b8655506200065b565b601f1984166200060486620003aa565b60005b828110156200062e5784890151825560018201915060208501945060208101905062000607565b868310156200064e57848901516200064a601f8916826200053e565b8355505b6001600288020188555050505b505050505050565b600082825260208201905092915050565b7f45524332303a206d696e7420746f20746865207a65726f206164647265737300600082015250565b6000620006ac601f8362000663565b9150620006b98262000674565b602082019050919050565b60006020820190508181036000830152620006df816200069d565b9050919050565b7f4e487b7100000000000000000000000000000000000000000000000000000000600052601160045260246000fd5b600062000722826200029f565b91506200072f836200029f565b92508282019050808211156200074a5762000749620006e6565b5b92915050565b6200075b816200029f565b82525050565b600060208201905062000778600083018462000750565b92915050565b611771806200078e6000396000f3fe608060405234801561001057600080fd5b50600436106101005760003560e01c806350312c9e11610097578063a457c2d711610066578063a457c2d71461029d578063a9059cbb146102cd578063b2bdfa7b146102fd578063dd62ed3e1461031b57610100565b806350312c9e1461022757806370a0823114610245578063853828b61461027557806395d89b411461027f57610100565b80632e1a7d4d116100d35780632e1a7d4d146101a1578063313ce567146101bd57806339509351146101db578063412664ae1461020b57610100565b806306fdde0314610105578063095ea7b31461012357806318160ddd1461015357806323b872dd14610171575b600080fd5b61010d61034b565b60405161011a9190610ed3565b60405180910390f35b61013d60048036038101906101389190610f8e565b6103dd565b60405161014a9190610fe9565b60405180910390f35b61015b610400565b6040516101689190611013565b60405180910390f35b61018b6004803603810190610186919061102e565b61040a565b6040516101989190610fe9565b60405180910390f35b6101bb60048036038101906101b69190611081565b610439565b005b6101c5610544565b6040516101d291906110ca565b60405180910390f35b6101f560048036038101906101f09190610f8e565b61054d565b6040516102029190610fe9565b60405180910390f35b61022560048036038101906102209190610f8e565b610584565b005b61022f61066e565b60405161023c9190611013565b60405180910390f35b61025f600480360381019061025a91906110e5565b61067e565b60405161026c9190611013565b60405180910390f35b61027d6106c6565b005b61028761078d565b6040516102949190610ed3565b60405180910390f35b6102b760048036038101906102b29190610f8e565b61081f565b6040516102c49190610fe9565b60405180910390f35b6102e760048036038101906102e29190610f8e565b610896565b6040516102f49190610fe9565b60405180910390f35b6103056108b9565b6040516103129190611121565b60405180910390f35b6103356004803603810190610330919061113c565b6108df565b6040516103429190611013565b60405180910390f35b60606003805461035a906111ab565b80601f0160208091040260200160405190810160405280929190818152602001828054610386906111ab565b80156103d35780601f106103a8576101008083540402835291602001916103d3565b820191906000526020600020905b8154815290600101906020018083116103b657829003601f168201915b5050505050905090565b6000806103e8610966565b90506103f581858561096e565b600191505092915050565b6000600254905090565b600080610415610966565b9050610422858285610b37565b61042d858585610bc3565b60019150509392505050565b600560009054906101000a900473ffffffffffffffffffffffffffffffffffffffff1673ffffffffffffffffffffffffffffffffffffffff163373ffffffffffffffffffffffffffffffffffffffff16146104c9576040517f08c379a00000000000000000000000000000000000000000000000000000000081526004016104c09061124e565b60405180910390fd5b6104d23061067e565b811115610514576040517f08c379a000000000000000000000000000000000000000000000000000000000815260040161050b906112e0565b60405180910390fd5b61054130600560009054906101000a900473ffffffffffffffffffffffffffffffffffffffff1683610bc3565b50565b60006012905090565b600080610558610966565b905061057981858561056a85896108df565b610574919061132f565b61096e565b600191505092915050565b600560009054906101000a900473ffffffffffffffffffffffffffffffffffffffff1673ffffffffffffffffffffffffffffffffffffffff163373ffffffffffffffffffffffffffffffffffffffff1614610614576040517f08c379a000000000000000000000000000000000000000000000000000000000815260040161060b9061124e565b60405180910390fd5b61061d3061067e565b81111561065f576040517f08c379a0000000000000000000000000000000000000000000000000000000008152600401610656906112e0565b60405180910390fd5b61066a308383610bc3565b5050565b60006106793061067e565b905090565b60008060008373ffffffffffffffffffffffffffffffffffffffff1673ffffffffffffffffffffffffffffffffffffffff168152602001908152602001600020549050919050565b600560009054906101000a900473ffffffffffffffffffffffffffffffffffffffff1673ffffffffffffffffffffffffffffffffffffffff163373ffffffffffffffffffffffffffffffffffffffff1614610756576040517f08c379a000000000000000000000000000000000000000000000000000000000815260040161074d9061124e565b60405180910390fd5b61078b30600560009054906101000a900473ffffffffffffffffffffffffffffffffffffffff166107863061067e565b610bc3565b565b60606004805461079c906111ab565b80601f01602080910402602001604051908101604052809291908181526020018280546107c8906111ab565b80156108155780601f106107ea57610100808354040283529160200191610815565b820191906000526020600020905b8154815290600101906020018083116107f857829003601f168201915b5050505050905090565b60008061082a610966565b9050600061083882866108df565b90508381101561087d576040517f08c379a0000000000000000000000000000000000000000000000000000000008152600401610874906113d5565b60405180910390fd5b61088a828686840361096e565b60019250505092915050565b6000806108a1610966565b90506108ae818585610bc3565b600191505092915050565b600560009054906101000a900473ffffffffffffffffffffffffffffffffffffffff1681565b6000600160008473ffffffffffffffffffffffffffffffffffffffff1673ffffffffffffffffffffffffffffffffffffffff16815260200190815260200160002060008373ffffffffffffffffffffffffffffffffffffffff1673ffffffffffffffffffffffffffffffffffffffff16815260200190815260200160002054905092915050565b600033905090565b600073ffffffffffffffffffffffffffffffffffffffff168373ffffffffffffffffffffffffffffffffffffffff16036109dd576040517f08c379a00000000000000000000000000000000000000000000000000000000081526004016109d490611467565b60405180910390fd5b600073ffffffffffffffffffffffffffffffffffffffff168273ffffffffffffffffffffffffffffffffffffffff1603610a4c576040517f08c379a0000000000000000000000000000000000000000000000000000000008152600401610a43906114f9565b60405180910390fd5b80600160008573ffffffffffffffffffffffffffffffffffffffff1673ffffffffffffffffffffffffffffffffffffffff16815260200190815260200160002060008473ffffffffffffffffffffffffffffffffffffffff1673ffffffffffffffffffffffffffffffffffffffff168152602001908152602001600020819055508173ffffffffffffffffffffffffffffffffffffffff168373ffffffffffffffffffffffffffffffffffffffff167f8c5be1e5ebec7d5bd14f71427d1e84f3dd0314c0f7b2291e5b200ac8c7c3b92583604051610b2a9190611013565b60405180910390a3505050565b6000610b4384846108df565b90507fffffffffffffffffffffffffffffffffffffffffffffffffffffffffffffffff8114610bbd5781811015610baf576040517f08c379a0000000000000000000000000000000000000000000000000000000008152600401610ba690611565565b60405180910390fd5b610bbc848484840361096e565b5b50505050565b600073ffffffffffffffffffffffffffffffffffffffff168373ffffffffffffffffffffffffffffffffffffffff1603610c32576040517f08c379a0000000000000000000000000000000000000000000000000000000008152600401610c29906115f7565b60405180910390fd5b600073ffffffffffffffffffffffffffffffffffffffff168273ffffffffffffffffffffffffffffffffffffffff1603610ca1576040517f08c379a0000000000000000000000000000000000000000000000000000000008152600401610c9890611689565b60405180910390fd5b610cac838383610e39565b60008060008573ffffffffffffffffffffffffffffffffffffffff1673ffffffffffffffffffffffffffffffffffffffff16815260200190815260200160002054905081811015610d32576040517f08c379a0000000000000000000000000000000000000000000000000000000008152600401610d299061171b565b60405180910390fd5b8181036000808673ffffffffffffffffffffffffffffffffffffffff1673ffffffffffffffffffffffffffffffffffffffff16815260200190815260200160002081905550816000808573ffffffffffffffffffffffffffffffffffffffff1673ffffffffffffffffffffffffffffffffffffffff168152602001908152602001600020600082825401925050819055508273ffffffffffffffffffffffffffffffffffffffff168473ffffffffffffffffffffffffffffffffffffffff167fddf252ad1be2c89b69c2b068fc378daa952ba7f163c4a11628f55a4df523b3ef84604051610e209190611013565b60405180910390a3610e33848484610e3e565b50505050565b505050565b505050565b600081519050919050565b600082825260208201905092915050565b60005b83811015610e7d578082015181840152602081019050610e62565b60008484015250505050565b6000601f19601f8301169050919050565b6000610ea582610e43565b610eaf8185610e4e565b9350610ebf818560208601610e5f565b610ec881610e89565b840191505092915050565b60006020820190508181036000830152610eed8184610e9a565b905092915050565b600080fd5b600073ffffffffffffffffffffffffffffffffffffffff82169050919050565b6000610f2582610efa565b9050919050565b610f3581610f1a565b8114610f4057600080fd5b50565b600081359050610f5281610f2c565b92915050565b6000819050919050565b610f6b81610f58565b8114610f7657600080fd5b50565b600081359050610f8881610f62565b92915050565b60008060408385031215610fa557610fa4610ef5565b5b6000610fb385828601610f43565b9250506020610fc485828601610f79565b9150509250929050565b60008115159050919050565b610fe381610fce565b82525050565b6000602082019050610ffe6000830184610fda565b92915050565b61100d81610f58565b82525050565b60006020820190506110286000830184611004565b92915050565b60008060006060848603121561104757611046610ef5565b5b600061105586828701610f43565b935050602061106686828701610f43565b925050604061107786828701610f79565b9150509250925092565b60006020828403121561109757611096610ef5565b5b60006110a584828501610f79565b91505092915050565b600060ff82169050919050565b6110c4816110ae565b82525050565b60006020820190506110df60008301846110bb565b92915050565b6000602082840312156110fb576110fa610ef5565b5b600061110984828501610f43565b91505092915050565b61111b81610f1a565b82525050565b60006020820190506111366000830184611112565b92915050565b6000806040838503121561115357611152610ef5565b5b600061116185828601610f43565b925050602061117285828601610f43565b9150509250929050565b7f4e487b7100000000000000000000000000000000000000000000000000000000600052602260045260246000fd5b600060028204905060018216806111c357607f821691505b6020821081036111d6576111d561117c565b5b50919050565b7f4f6e6c79206f776e65722063616e2063616c6c20746869732066756e6374696f60008201527f6e00000000000000000000000000000000000000000000000000000000000000602082015250565b6000611238602183610e4e565b9150611243826111dc565b604082019050919050565b600060208201905081810360008301526112678161122b565b9050919050565b7f5769746864726177616c20616d6f756e74206973206d6f7265207468616e206260008201527f616c616e63650000000000000000000000000000000000000000000000000000602082015250565b60006112ca602683610e4e565b91506112d58261126e565b604082019050919050565b600060208201905081810360008301526112f9816112bd565b9050919050565b7f4e487b7100000000000000000000000000000000000000000000000000000000600052601160045260246000fd5b600061133a82610f58565b915061134583610f58565b925082820190508082111561135d5761135c611300565b5b92915050565b7f45524332303a2064656372656173656420616c6c6f77616e63652062656c6f7760008201527f207a65726f000000000000000000000000000000000000000000000000000000602082015250565b60006113bf602583610e4e565b91506113ca82611363565b604082019050919050565b600060208201905081810360008301526113ee816113b2565b9050919050565b7f45524332303a20617070726f76652066726f6d20746865207a65726f2061646460008201527f7265737300000000000000000000000000000000000000000000000000000000602082015250565b6000611451602483610e4e565b915061145c826113f5565b604082019050919050565b6000602082019050818103600083015261148081611444565b9050919050565b7f45524332303a20617070726f766520746f20746865207a65726f20616464726560008201527f7373000000000000000000000000000000000000000000000000000000000000602082015250565b60006114e3602283610e4e565b91506114ee82611487565b604082019050919050565b60006020820190508181036000830152611512816114d6565b9050919050565b7f45524332303a20696e73756666696369656e7420616c6c6f77616e6365000000600082015250565b600061154f601d83610e4e565b915061155a82611519565b602082019050919050565b6000602082019050818103600083015261157e81611542565b9050919050565b7f45524332303a207472616e736665722066726f6d20746865207a65726f20616460008201527f6472657373000000000000000000000000000000000000000000000000000000602082015250565b60006115e1602583610e4e565b91506115ec82611585565b604082019050919050565b60006020820190508181036000830152611610816115d4565b9050919050565b7f45524332303a207472616e7366657220746f20746865207a65726f206164647260008201527f6573730000000000000000000000000000000000000000000000000000000000602082015250565b6000611673602383610e4e565b915061167e82611617565b604082019050919050565b600060208201905081810360008301526116a281611666565b9050919050565b7f45524332303a207472616e7366657220616d6f756e742065786365656473206260008201527f616c616e63650000000000000000000000000000000000000000000000000000602082015250565b6000611705602683610e4e565b9150611710826116a9565b604082019050919050565b60006020820190508181036000830152611734816116f8565b905091905056fea264697066735822122010ced006e6278ccaa42a2e5ee6d3c7ba112692f791993c19f23a6627fab86b1364736f6c63430008110033",
  "immutableReferences": {},
  "source": "//SPDX-License-Identifier: UNLICENSED\r\npragma solidity ^0.8.0;\r\n\r\nimport \"../node_modules/@openzeppelin/contracts/token/ERC20/ERC20.sol\";\r\n\r\ncontract RateItUpToken is ERC20 {\r\n    address public _owner;\r\n\r\n    constructor(uint256 initialSupply) ERC20(\"RateItUpToken\", \"RIU\") {\r\n        _mint(address(this), initialSupply);\r\n        _owner = msg.sender;\r\n    }\r\n\r\n    modifier onlyOwner() {\r\n        require(msg.sender == _owner, \"Only owner can call this function\");\r\n        _;\r\n    }\r\n    \r\n    /**\r\n    This method allows the owner to withdraw all the tokens.\r\n     */\r\n    function withdrawAll() public onlyOwner {\r\n        _transfer(address(this), _owner, balanceOf(address(this)));\r\n    }\r\n\r\n    /**\r\n    This method allows the owner to withdraw a particular amount of tokens.\r\n     */\r\n    function withdraw(uint _amount) public onlyOwner {\r\n        require(_amount <= balanceOf(address(this)), \"Withdrawal amount is more than balance\");\r\n        _transfer(address(this), _owner, _amount);\r\n    }\r\n\r\n    /**\r\n    This method allows the owner to send a particular amount of tokens to the specified address.\r\n     */\r\n    function sendToken(address _receiver, uint _amount) public onlyOwner{\r\n        require(_amount <= balanceOf(address(this)), \"Withdrawal amount is more than balance\");\r\n        _transfer(address(this), _receiver, _amount);\r\n    }\r\n\r\n    /**\r\n    This method allows the user to check the number of tokens owned by the contract. \r\n     */\r\n    function checkContractBalance() public view returns(uint){\r\n        return balanceOf(address(this));\r\n    }\r\n}\r\n",
  "sourcePath": "C:\\Users\\91805\\Desktop\\Projects\\RateItUp\\backend\\contracts\\RateItUpToken.sol",
  "compiler": {
    "name": "solc",
    "version": "0.8.17+commit.8df45f5f.Emscripten.clang"
  },
  "schemaVersion": "3.4.11",
  "updatedAt": "2023-02-15T09:22:24.637Z",
  "networkType": "ethereum",
  "devdoc": {
    "kind": "dev",
    "methods": {
      "allowance(address,address)": {
        "details": "See {IERC20-allowance}."
      },
      "approve(address,uint256)": {
        "details": "See {IERC20-approve}. NOTE: If `amount` is the maximum `uint256`, the allowance is not updated on `transferFrom`. This is semantically equivalent to an infinite approval. Requirements: - `spender` cannot be the zero address."
      },
      "balanceOf(address)": {
        "details": "See {IERC20-balanceOf}."
      },
      "decimals()": {
        "details": "Returns the number of decimals used to get its user representation. For example, if `decimals` equals `2`, a balance of `505` tokens should be displayed to a user as `5.05` (`505 / 10 ** 2`). Tokens usually opt for a value of 18, imitating the relationship between Ether and Wei. This is the value {ERC20} uses, unless this function is overridden; NOTE: This information is only used for _display_ purposes: it in no way affects any of the arithmetic of the contract, including {IERC20-balanceOf} and {IERC20-transfer}."
      },
      "decreaseAllowance(address,uint256)": {
        "details": "Atomically decreases the allowance granted to `spender` by the caller. This is an alternative to {approve} that can be used as a mitigation for problems described in {IERC20-approve}. Emits an {Approval} event indicating the updated allowance. Requirements: - `spender` cannot be the zero address. - `spender` must have allowance for the caller of at least `subtractedValue`."
      },
      "increaseAllowance(address,uint256)": {
        "details": "Atomically increases the allowance granted to `spender` by the caller. This is an alternative to {approve} that can be used as a mitigation for problems described in {IERC20-approve}. Emits an {Approval} event indicating the updated allowance. Requirements: - `spender` cannot be the zero address."
      },
      "name()": {
        "details": "Returns the name of the token."
      },
      "symbol()": {
        "details": "Returns the symbol of the token, usually a shorter version of the name."
      },
      "totalSupply()": {
        "details": "See {IERC20-totalSupply}."
      },
      "transfer(address,uint256)": {
        "details": "See {IERC20-transfer}. Requirements: - `to` cannot be the zero address. - the caller must have a balance of at least `amount`."
      },
      "transferFrom(address,address,uint256)": {
        "details": "See {IERC20-transferFrom}. Emits an {Approval} event indicating the updated allowance. This is not required by the EIP. See the note at the beginning of {ERC20}. NOTE: Does not update the allowance if the current allowance is the maximum `uint256`. Requirements: - `from` and `to` cannot be the zero address. - `from` must have a balance of at least `amount`. - the caller must have allowance for ``from``'s tokens of at least `amount`."
      }
    },
    "version": 1
  },
  "userdoc": {
    "kind": "user",
    "methods": {
      "checkContractBalance()": {
        "notice": "This method allows the user to check the number of tokens owned by the contract. "
      },
      "sendToken(address,uint256)": {
        "notice": "This method allows the owner to send a particular amount of tokens to the specified address."
      },
      "withdraw(uint256)": {
        "notice": "This method allows the owner to withdraw a particular amount of tokens."
      },
      "withdrawAll()": {
        "notice": "This method allows the owner to withdraw all the tokens."
      }
    },
    "version": 1
  }
}