{
  "contractName": "RateItUpToken",
  "abi": [
    {
      "inputs": [
        {
          "internalType": "uint256",
          "name": "initialSupply",
          "type": "uint256"
        }
      ],
      "stateMutability": "nonpayable",
      "type": "constructor"
    },
    {
      "anonymous": false,
      "inputs": [
        {
          "indexed": true,
          "internalType": "address",
          "name": "owner",
          "type": "address"
        },
        {
          "indexed": true,
          "internalType": "address",
          "name": "spender",
          "type": "address"
        },
        {
          "indexed": false,
          "internalType": "uint256",
          "name": "value",
          "type": "uint256"
        }
      ],
      "name": "Approval",
      "type": "event"
    },
    {
      "anonymous": false,
      "inputs": [
        {
          "indexed": true,
          "internalType": "address",
          "name": "from",
          "type": "address"
        },
        {
          "indexed": true,
          "internalType": "address",
          "name": "to",
          "type": "address"
        },
        {
          "indexed": false,
          "internalType": "uint256",
          "name": "value",
          "type": "uint256"
        }
      ],
      "name": "Transfer",
      "type": "event"
    },
    {
      "inputs": [],
      "name": "_owner",
      "outputs": [
        {
          "internalType": "address",
          "name": "",
          "type": "address"
        }
      ],
      "stateMutability": "view",
      "type": "function",
      "constant": true
    },
    {
      "inputs": [
        {
          "internalType": "address",
          "name": "owner",
          "type": "address"
        },
        {
          "internalType": "address",
          "name": "spender",
          "type": "address"
        }
      ],
      "name": "allowance",
      "outputs": [
        {
          "internalType": "uint256",
          "name": "",
          "type": "uint256"
        }
      ],
      "stateMutability": "view",
      "type": "function",
      "constant": true
    },
    {
      "inputs": [
        {
          "internalType": "address",
          "name": "spender",
          "type": "address"
        },
        {
          "internalType": "uint256",
          "name": "amount",
          "type": "uint256"
        }
      ],
      "name": "approve",
      "outputs": [
        {
          "internalType": "bool",
          "name": "",
          "type": "bool"
        }
      ],
      "stateMutability": "nonpayable",
      "type": "function"
    },
    {
      "inputs": [
        {
          "internalType": "address",
          "name": "account",
          "type": "address"
        }
      ],
      "name": "balanceOf",
      "outputs": [
        {
          "internalType": "uint256",
          "name": "",
          "type": "uint256"
        }
      ],
      "stateMutability": "view",
      "type": "function",
      "constant": true
    },
    {
      "inputs": [],
      "name": "decimals",
      "outputs": [
        {
          "internalType": "uint8",
          "name": "",
          "type": "uint8"
        }
      ],
      "stateMutability": "view",
      "type": "function",
      "constant": true
    },
    {
      "inputs": [
        {
          "internalType": "address",
          "name": "spender",
          "type": "address"
        },
        {
          "internalType": "uint256",
          "name": "subtractedValue",
          "type": "uint256"
        }
      ],
      "name": "decreaseAllowance",
      "outputs": [
        {
          "internalType": "bool",
          "name": "",
          "type": "bool"
        }
      ],
      "stateMutability": "nonpayable",
      "type": "function"
    },
    {
      "inputs": [
        {
          "internalType": "address",
          "name": "spender",
          "type": "address"
        },
        {
          "internalType": "uint256",
          "name": "addedValue",
          "type": "uint256"
        }
      ],
      "name": "increaseAllowance",
      "outputs": [
        {
          "internalType": "bool",
          "name": "",
          "type": "bool"
        }
      ],
      "stateMutability": "nonpayable",
      "type": "function"
    },
    {
      "inputs": [],
      "name": "name",
      "outputs": [
        {
          "internalType": "string",
          "name": "",
          "type": "string"
        }
      ],
      "stateMutability": "view",
      "type": "function",
      "constant": true
    },
    {
      "inputs": [],
      "name": "symbol",
      "outputs": [
        {
          "internalType": "string",
          "name": "",
          "type": "string"
        }
      ],
      "stateMutability": "view",
      "type": "function",
      "constant": true
    },
    {
      "inputs": [],
      "name": "totalSupply",
      "outputs": [
        {
          "internalType": "uint256",
          "name": "",
          "type": "uint256"
        }
      ],
      "stateMutability": "view",
      "type": "function",
      "constant": true
    },
    {
      "inputs": [
        {
          "internalType": "address",
          "name": "to",
          "type": "address"
        },
        {
          "internalType": "uint256",
          "name": "amount",
          "type": "uint256"
        }
      ],
      "name": "transfer",
      "outputs": [
        {
          "internalType": "bool",
          "name": "",
          "type": "bool"
        }
      ],
      "stateMutability": "nonpayable",
      "type": "function"
    },
    {
      "inputs": [
        {
          "internalType": "address",
          "name": "from",
          "type": "address"
        },
        {
          "internalType": "address",
          "name": "to",
          "type": "address"
        },
        {
          "internalType": "uint256",
          "name": "amount",
          "type": "uint256"
        }
      ],
      "name": "transferFrom",
      "outputs": [
        {
          "internalType": "bool",
          "name": "",
          "type": "bool"
        }
      ],
      "stateMutability": "nonpayable",
      "type": "function"
    },
    {
      "inputs": [],
      "name": "withdrawAll",
      "outputs": [],
      "stateMutability": "nonpayable",
      "type": "function"
    },
    {
      "inputs": [
        {
          "internalType": "uint256",
          "name": "_amount",
          "type": "uint256"
        }
      ],
      "name": "withdraw",
      "outputs": [],
      "stateMutability": "nonpayable",
      "type": "function"
    },
    {
      "inputs": [
        {
          "internalType": "address",
          "name": "_receiver",
          "type": "address"
        },
        {
          "internalType": "uint256",
          "name": "_amount",
          "type": "uint256"
        }
      ],
      "name": "sendToken",
      "outputs": [],
      "stateMutability": "nonpayable",
      "type": "function"
    }
  ],
  "bytecode": "0x60806040523480156200001157600080fd5b5060405162001ec638038062001ec68339818101604052810190620000379190620002da565b6040518060400160405280600d81526020017f5261746549745570546f6b656e000000000000000000000000000000000000008152506040518060400160405280600381526020017f52495500000000000000000000000000000000000000000000000000000000008152508160039081620000b491906200057c565b508060049081620000c691906200057c565b505050620000db30826200012360201b60201c565b33600560006101000a81548173ffffffffffffffffffffffffffffffffffffffff021916908373ffffffffffffffffffffffffffffffffffffffff160217905550506200077e565b600073ffffffffffffffffffffffffffffffffffffffff168273ffffffffffffffffffffffffffffffffffffffff160362000195576040517f08c379a00000000000000000000000000000000000000000000000000000000081526004016200018c90620006c4565b60405180910390fd5b620001a9600083836200029060201b60201c565b8060026000828254620001bd919062000715565b92505081905550806000808473ffffffffffffffffffffffffffffffffffffffff1673ffffffffffffffffffffffffffffffffffffffff168152602001908152602001600020600082825401925050819055508173ffffffffffffffffffffffffffffffffffffffff16600073ffffffffffffffffffffffffffffffffffffffff167fddf252ad1be2c89b69c2b068fc378daa952ba7f163c4a11628f55a4df523b3ef8360405162000270919062000761565b60405180910390a36200028c600083836200029560201b60201c565b5050565b505050565b505050565b600080fd5b6000819050919050565b620002b4816200029f565b8114620002c057600080fd5b50565b600081519050620002d481620002a9565b92915050565b600060208284031215620002f357620002f26200029a565b5b60006200030384828501620002c3565b91505092915050565b600081519050919050565b7f4e487b7100000000000000000000000000000000000000000000000000000000600052604160045260246000fd5b7f4e487b7100000000000000000000000000000000000000000000000000000000600052602260045260246000fd5b600060028204905060018216806200038e57607f821691505b602082108103620003a457620003a362000346565b5b50919050565b60008190508160005260206000209050919050565b60006020601f8301049050919050565b600082821b905092915050565b6000600883026200040e7fffffffffffffffffffffffffffffffffffffffffffffffffffffffffffffffff82620003cf565b6200041a8683620003cf565b95508019841693508086168417925050509392505050565b6000819050919050565b60006200045d6200045762000451846200029f565b62000432565b6200029f565b9050919050565b6000819050919050565b62000479836200043c565b62000491620004888262000464565b848454620003dc565b825550505050565b600090565b620004a862000499565b620004b58184846200046e565b505050565b5b81811015620004dd57620004d16000826200049e565b600181019050620004bb565b5050565b601f8211156200052c57620004f681620003aa565b6200050184620003bf565b8101602085101562000511578190505b620005296200052085620003bf565b830182620004ba565b50505b505050565b600082821c905092915050565b6000620005516000198460080262000531565b1980831691505092915050565b60006200056c83836200053e565b9150826002028217905092915050565b62000587826200030c565b67ffffffffffffffff811115620005a357620005a262000317565b5b620005af825462000375565b620005bc828285620004e1565b600060209050601f831160018114620005f45760008415620005df578287015190505b620005eb85826200055e565b8655506200065b565b601f1984166200060486620003aa565b60005b828110156200062e5784890151825560018201915060208501945060208101905062000607565b868310156200064e57848901516200064a601f8916826200053e565b8355505b6001600288020188555050505b505050505050565b600082825260208201905092915050565b7f45524332303a206d696e7420746f20746865207a65726f206164647265737300600082015250565b6000620006ac601f8362000663565b9150620006b98262000674565b602082019050919050565b60006020820190508181036000830152620006df816200069d565b9050919050565b7f4e487b7100000000000000000000000000000000000000000000000000000000600052601160045260246000fd5b600062000722826200029f565b91506200072f836200029f565b92508282019050808211156200074a5762000749620006e6565b5b92915050565b6200075b816200029f565b82525050565b600060208201905062000778600083018462000750565b92915050565b611738806200078e6000396000f3fe608060405234801561001057600080fd5b50600436106100f55760003560e01c8063412664ae11610097578063a457c2d711610066578063a457c2d714610274578063a9059cbb146102a4578063b2bdfa7b146102d4578063dd62ed3e146102f2576100f5565b8063412664ae1461020057806370a082311461021c578063853828b61461024c57806395d89b4114610256576100f5565b806323b872dd116100d357806323b872dd146101665780632e1a7d4d14610196578063313ce567146101b257806339509351146101d0576100f5565b806306fdde03146100fa578063095ea7b31461011857806318160ddd14610148575b600080fd5b610102610322565b60405161010f9190610e9a565b60405180910390f35b610132600480360381019061012d9190610f55565b6103b4565b60405161013f9190610fb0565b60405180910390f35b6101506103d7565b60405161015d9190610fda565b60405180910390f35b610180600480360381019061017b9190610ff5565b6103e1565b60405161018d9190610fb0565b60405180910390f35b6101b060048036038101906101ab9190611048565b610410565b005b6101ba61051b565b6040516101c79190611091565b60405180910390f35b6101ea60048036038101906101e59190610f55565b610524565b6040516101f79190610fb0565b60405180910390f35b61021a60048036038101906102159190610f55565b61055b565b005b610236600480360381019061023191906110ac565b610645565b6040516102439190610fda565b60405180910390f35b61025461068d565b005b61025e610754565b60405161026b9190610e9a565b60405180910390f35b61028e60048036038101906102899190610f55565b6107e6565b60405161029b9190610fb0565b60405180910390f35b6102be60048036038101906102b99190610f55565b61085d565b6040516102cb9190610fb0565b60405180910390f35b6102dc610880565b6040516102e991906110e8565b60405180910390f35b61030c60048036038101906103079190611103565b6108a6565b6040516103199190610fda565b60405180910390f35b60606003805461033190611172565b80601f016020809104026020016040519081016040528092919081815260200182805461035d90611172565b80156103aa5780601f1061037f576101008083540402835291602001916103aa565b820191906000526020600020905b81548152906001019060200180831161038d57829003601f168201915b5050505050905090565b6000806103bf61092d565b90506103cc818585610935565b600191505092915050565b6000600254905090565b6000806103ec61092d565b90506103f9858285610afe565b610404858585610b8a565b60019150509392505050565b600560009054906101000a900473ffffffffffffffffffffffffffffffffffffffff1673ffffffffffffffffffffffffffffffffffffffff163373ffffffffffffffffffffffffffffffffffffffff16146104a0576040517f08c379a000000000000000000000000000000000000000000000000000000000815260040161049790611215565b60405180910390fd5b6104a930610645565b8111156104eb576040517f08c379a00000000000000000000000000000000000000000000000000000000081526004016104e2906112a7565b60405180910390fd5b61051830600560009054906101000a900473ffffffffffffffffffffffffffffffffffffffff1683610b8a565b50565b60006012905090565b60008061052f61092d565b905061055081858561054185896108a6565b61054b91906112f6565b610935565b600191505092915050565b600560009054906101000a900473ffffffffffffffffffffffffffffffffffffffff1673ffffffffffffffffffffffffffffffffffffffff163373ffffffffffffffffffffffffffffffffffffffff16146105eb576040517f08c379a00000000000000000000000000000000000000000000000000000000081526004016105e290611215565b60405180910390fd5b6105f430610645565b811115610636576040517f08c379a000000000000000000000000000000000000000000000000000000000815260040161062d906112a7565b60405180910390fd5b610641308383610b8a565b5050565b60008060008373ffffffffffffffffffffffffffffffffffffffff1673ffffffffffffffffffffffffffffffffffffffff168152602001908152602001600020549050919050565b600560009054906101000a900473ffffffffffffffffffffffffffffffffffffffff1673ffffffffffffffffffffffffffffffffffffffff163373ffffffffffffffffffffffffffffffffffffffff161461071d576040517f08c379a000000000000000000000000000000000000000000000000000000000815260040161071490611215565b60405180910390fd5b61075230600560009054906101000a900473ffffffffffffffffffffffffffffffffffffffff1661074d30610645565b610b8a565b565b60606004805461076390611172565b80601f016020809104026020016040519081016040528092919081815260200182805461078f90611172565b80156107dc5780601f106107b1576101008083540402835291602001916107dc565b820191906000526020600020905b8154815290600101906020018083116107bf57829003601f168201915b5050505050905090565b6000806107f161092d565b905060006107ff82866108a6565b905083811015610844576040517f08c379a000000000000000000000000000000000000000000000000000000000815260040161083b9061139c565b60405180910390fd5b6108518286868403610935565b60019250505092915050565b60008061086861092d565b9050610875818585610b8a565b600191505092915050565b600560009054906101000a900473ffffffffffffffffffffffffffffffffffffffff1681565b6000600160008473ffffffffffffffffffffffffffffffffffffffff1673ffffffffffffffffffffffffffffffffffffffff16815260200190815260200160002060008373ffffffffffffffffffffffffffffffffffffffff1673ffffffffffffffffffffffffffffffffffffffff16815260200190815260200160002054905092915050565b600033905090565b600073ffffffffffffffffffffffffffffffffffffffff168373ffffffffffffffffffffffffffffffffffffffff16036109a4576040517f08c379a000000000000000000000000000000000000000000000000000000000815260040161099b9061142e565b60405180910390fd5b600073ffffffffffffffffffffffffffffffffffffffff168273ffffffffffffffffffffffffffffffffffffffff1603610a13576040517f08c379a0000000000000000000000000000000000000000000000000000000008152600401610a0a906114c0565b60405180910390fd5b80600160008573ffffffffffffffffffffffffffffffffffffffff1673ffffffffffffffffffffffffffffffffffffffff16815260200190815260200160002060008473ffffffffffffffffffffffffffffffffffffffff1673ffffffffffffffffffffffffffffffffffffffff168152602001908152602001600020819055508173ffffffffffffffffffffffffffffffffffffffff168373ffffffffffffffffffffffffffffffffffffffff167f8c5be1e5ebec7d5bd14f71427d1e84f3dd0314c0f7b2291e5b200ac8c7c3b92583604051610af19190610fda565b60405180910390a3505050565b6000610b0a84846108a6565b90507fffffffffffffffffffffffffffffffffffffffffffffffffffffffffffffffff8114610b845781811015610b76576040517f08c379a0000000000000000000000000000000000000000000000000000000008152600401610b6d9061152c565b60405180910390fd5b610b838484848403610935565b5b50505050565b600073ffffffffffffffffffffffffffffffffffffffff168373ffffffffffffffffffffffffffffffffffffffff1603610bf9576040517f08c379a0000000000000000000000000000000000000000000000000000000008152600401610bf0906115be565b60405180910390fd5b600073ffffffffffffffffffffffffffffffffffffffff168273ffffffffffffffffffffffffffffffffffffffff1603610c68576040517f08c379a0000000000000000000000000000000000000000000000000000000008152600401610c5f90611650565b60405180910390fd5b610c73838383610e00565b60008060008573ffffffffffffffffffffffffffffffffffffffff1673ffffffffffffffffffffffffffffffffffffffff16815260200190815260200160002054905081811015610cf9576040517f08c379a0000000000000000000000000000000000000000000000000000000008152600401610cf0906116e2565b60405180910390fd5b8181036000808673ffffffffffffffffffffffffffffffffffffffff1673ffffffffffffffffffffffffffffffffffffffff16815260200190815260200160002081905550816000808573ffffffffffffffffffffffffffffffffffffffff1673ffffffffffffffffffffffffffffffffffffffff168152602001908152602001600020600082825401925050819055508273ffffffffffffffffffffffffffffffffffffffff168473ffffffffffffffffffffffffffffffffffffffff167fddf252ad1be2c89b69c2b068fc378daa952ba7f163c4a11628f55a4df523b3ef84604051610de79190610fda565b60405180910390a3610dfa848484610e05565b50505050565b505050565b505050565b600081519050919050565b600082825260208201905092915050565b60005b83811015610e44578082015181840152602081019050610e29565b60008484015250505050565b6000601f19601f8301169050919050565b6000610e6c82610e0a565b610e768185610e15565b9350610e86818560208601610e26565b610e8f81610e50565b840191505092915050565b60006020820190508181036000830152610eb48184610e61565b905092915050565b600080fd5b600073ffffffffffffffffffffffffffffffffffffffff82169050919050565b6000610eec82610ec1565b9050919050565b610efc81610ee1565b8114610f0757600080fd5b50565b600081359050610f1981610ef3565b92915050565b6000819050919050565b610f3281610f1f565b8114610f3d57600080fd5b50565b600081359050610f4f81610f29565b92915050565b60008060408385031215610f6c57610f6b610ebc565b5b6000610f7a85828601610f0a565b9250506020610f8b85828601610f40565b9150509250929050565b60008115159050919050565b610faa81610f95565b82525050565b6000602082019050610fc56000830184610fa1565b92915050565b610fd481610f1f565b82525050565b6000602082019050610fef6000830184610fcb565b92915050565b60008060006060848603121561100e5761100d610ebc565b5b600061101c86828701610f0a565b935050602061102d86828701610f0a565b925050604061103e86828701610f40565b9150509250925092565b60006020828403121561105e5761105d610ebc565b5b600061106c84828501610f40565b91505092915050565b600060ff82169050919050565b61108b81611075565b82525050565b60006020820190506110a66000830184611082565b92915050565b6000602082840312156110c2576110c1610ebc565b5b60006110d084828501610f0a565b91505092915050565b6110e281610ee1565b82525050565b60006020820190506110fd60008301846110d9565b92915050565b6000806040838503121561111a57611119610ebc565b5b600061112885828601610f0a565b925050602061113985828601610f0a565b9150509250929050565b7f4e487b7100000000000000000000000000000000000000000000000000000000600052602260045260246000fd5b6000600282049050600182168061118a57607f821691505b60208210810361119d5761119c611143565b5b50919050565b7f4f6e6c79206f776e65722063616e2063616c6c20746869732066756e6374696f60008201527f6e00000000000000000000000000000000000000000000000000000000000000602082015250565b60006111ff602183610e15565b915061120a826111a3565b604082019050919050565b6000602082019050818103600083015261122e816111f2565b9050919050565b7f5769746864726177616c20616d6f756e74206973206d6f7265207468616e206260008201527f616c616e63650000000000000000000000000000000000000000000000000000602082015250565b6000611291602683610e15565b915061129c82611235565b604082019050919050565b600060208201905081810360008301526112c081611284565b9050919050565b7f4e487b7100000000000000000000000000000000000000000000000000000000600052601160045260246000fd5b600061130182610f1f565b915061130c83610f1f565b9250828201905080821115611324576113236112c7565b5b92915050565b7f45524332303a2064656372656173656420616c6c6f77616e63652062656c6f7760008201527f207a65726f000000000000000000000000000000000000000000000000000000602082015250565b6000611386602583610e15565b91506113918261132a565b604082019050919050565b600060208201905081810360008301526113b581611379565b9050919050565b7f45524332303a20617070726f76652066726f6d20746865207a65726f2061646460008201527f7265737300000000000000000000000000000000000000000000000000000000602082015250565b6000611418602483610e15565b9150611423826113bc565b604082019050919050565b600060208201905081810360008301526114478161140b565b9050919050565b7f45524332303a20617070726f766520746f20746865207a65726f20616464726560008201527f7373000000000000000000000000000000000000000000000000000000000000602082015250565b60006114aa602283610e15565b91506114b58261144e565b604082019050919050565b600060208201905081810360008301526114d98161149d565b9050919050565b7f45524332303a20696e73756666696369656e7420616c6c6f77616e6365000000600082015250565b6000611516601d83610e15565b9150611521826114e0565b602082019050919050565b6000602082019050818103600083015261154581611509565b9050919050565b7f45524332303a207472616e736665722066726f6d20746865207a65726f20616460008201527f6472657373000000000000000000000000000000000000000000000000000000602082015250565b60006115a8602583610e15565b91506115b38261154c565b604082019050919050565b600060208201905081810360008301526115d78161159b565b9050919050565b7f45524332303a207472616e7366657220746f20746865207a65726f206164647260008201527f6573730000000000000000000000000000000000000000000000000000000000602082015250565b600061163a602383610e15565b9150611645826115de565b604082019050919050565b600060208201905081810360008301526116698161162d565b9050919050565b7f45524332303a207472616e7366657220616d6f756e742065786365656473206260008201527f616c616e63650000000000000000000000000000000000000000000000000000602082015250565b60006116cc602683610e15565b91506116d782611670565b604082019050919050565b600060208201905081810360008301526116fb816116bf565b905091905056fea2646970667358221220e05f12eca74470c50fcd464c78d38add0f961b0f018d705df611e0ec75edb3a164736f6c63430008110033",
  "immutableReferences": {},
  "source": "//SPDX-License-Identifier: UNLICENSED\r\npragma solidity ^0.8.0;\r\n\r\nimport \"../node_modules/@openzeppelin/contracts/token/ERC20/ERC20.sol\";\r\n\r\ncontract RateItUpToken is ERC20 {\r\n    address public _owner;\r\n\r\n    constructor(uint256 initialSupply) ERC20(\"RateItUpToken\", \"RIU\") {\r\n        _mint(address(this), initialSupply);\r\n        _owner = msg.sender;\r\n    }\r\n\r\n    modifier onlyOwner() {\r\n        require(msg.sender == _owner, \"Only owner can call this function\");\r\n        _;\r\n    }\r\n\r\n    function withdrawAll() public onlyOwner {\r\n        _transfer(address(this), _owner, balanceOf(address(this)));\r\n    }\r\n\r\n    function withdraw(uint _amount) public onlyOwner {\r\n        require(_amount <= balanceOf(address(this)), \"Withdrawal amount is more than balance\");\r\n        _transfer(address(this), _owner, _amount);\r\n    }\r\n\r\n    function sendToken(address _receiver, uint _amount) public onlyOwner{\r\n        require(_amount <= balanceOf(address(this)), \"Withdrawal amount is more than balance\");\r\n        _transfer(address(this), _receiver, _amount);\r\n    }\r\n}\r\n",
  "sourcePath": "C:\\Users\\91805\\Desktop\\Projects\\RateItUp\\backend\\contracts\\RateItUpToken.sol",
  "compiler": {
    "name": "solc",
    "version": "0.8.17+commit.8df45f5f.Emscripten.clang"
  },
  "schemaVersion": "3.4.11",
  "updatedAt": "2023-02-14T20:38:33.207Z",
  "networkType": "ethereum",
  "devdoc": {
    "kind": "dev",
    "methods": {
      "allowance(address,address)": {
        "details": "See {IERC20-allowance}."
      },
      "approve(address,uint256)": {
        "details": "See {IERC20-approve}. NOTE: If `amount` is the maximum `uint256`, the allowance is not updated on `transferFrom`. This is semantically equivalent to an infinite approval. Requirements: - `spender` cannot be the zero address."
      },
      "balanceOf(address)": {
        "details": "See {IERC20-balanceOf}."
      },
      "decimals()": {
        "details": "Returns the number of decimals used to get its user representation. For example, if `decimals` equals `2`, a balance of `505` tokens should be displayed to a user as `5.05` (`505 / 10 ** 2`). Tokens usually opt for a value of 18, imitating the relationship between Ether and Wei. This is the value {ERC20} uses, unless this function is overridden; NOTE: This information is only used for _display_ purposes: it in no way affects any of the arithmetic of the contract, including {IERC20-balanceOf} and {IERC20-transfer}."
      },
      "decreaseAllowance(address,uint256)": {
        "details": "Atomically decreases the allowance granted to `spender` by the caller. This is an alternative to {approve} that can be used as a mitigation for problems described in {IERC20-approve}. Emits an {Approval} event indicating the updated allowance. Requirements: - `spender` cannot be the zero address. - `spender` must have allowance for the caller of at least `subtractedValue`."
      },
      "increaseAllowance(address,uint256)": {
        "details": "Atomically increases the allowance granted to `spender` by the caller. This is an alternative to {approve} that can be used as a mitigation for problems described in {IERC20-approve}. Emits an {Approval} event indicating the updated allowance. Requirements: - `spender` cannot be the zero address."
      },
      "name()": {
        "details": "Returns the name of the token."
      },
      "symbol()": {
        "details": "Returns the symbol of the token, usually a shorter version of the name."
      },
      "totalSupply()": {
        "details": "See {IERC20-totalSupply}."
      },
      "transfer(address,uint256)": {
        "details": "See {IERC20-transfer}. Requirements: - `to` cannot be the zero address. - the caller must have a balance of at least `amount`."
      },
      "transferFrom(address,address,uint256)": {
        "details": "See {IERC20-transferFrom}. Emits an {Approval} event indicating the updated allowance. This is not required by the EIP. See the note at the beginning of {ERC20}. NOTE: Does not update the allowance if the current allowance is the maximum `uint256`. Requirements: - `from` and `to` cannot be the zero address. - `from` must have a balance of at least `amount`. - the caller must have allowance for ``from``'s tokens of at least `amount`."
      }
    },
    "version": 1
  },
  "userdoc": {
    "kind": "user",
    "methods": {},
    "version": 1
  }
}